{
  "contractName": "Betting",
  "abi": [
    {
      "constant": true,
      "inputs": [
        {
          "name": "",
          "type": "bytes32"
        }
      ],
      "name": "bets",
      "outputs": [
        {
          "name": "colorSelected",
          "type": "uint8"
        },
        {
          "name": "amountBet",
          "type": "uint256"
        },
        {
          "name": "gambler",
          "type": "address"
        }
      ],
      "payable": false,
      "stateMutability": "view",
      "type": "function",
      "signature": "0xc902c3ae"
    },
    {
      "inputs": [
        {
          "name": "_minimumBet",
          "type": "uint256"
        }
      ],
      "payable": false,
      "stateMutability": "nonpayable",
      "type": "constructor",
      "signature": "constructor"
    },
    {
      "anonymous": false,
      "inputs": [
        {
          "indexed": false,
          "name": "current_time",
          "type": "uint256"
        }
      ],
      "name": "TimeOut",
      "type": "event",
      "signature": "0x16be1b0aa0a2eeb10cbc324576de63ce2fafab5ce88d00af42da553e8d399ca8"
    },
    {
      "anonymous": false,
      "inputs": [
        {
          "indexed": false,
          "name": "color",
          "type": "uint256"
        }
      ],
      "name": "Color",
      "type": "event",
      "signature": "0x9183938afccc831f65183817751f11a01ba48572bca6b9949d24900e6d8730fe"
    },
    {
      "constant": false,
      "inputs": [
        {
          "name": "_endTime",
          "type": "uint256"
        }
      ],
      "name": "startBet",
      "outputs": [],
      "payable": false,
      "stateMutability": "nonpayable",
      "type": "function",
      "signature": "0xd20e54a8"
    },
    {
      "constant": true,
      "inputs": [],
      "name": "currentTime",
      "outputs": [
        {
          "name": "",
          "type": "int256"
        }
      ],
      "payable": false,
      "stateMutability": "view",
      "type": "function",
      "signature": "0xd18e81b3"
    },
    {
      "constant": false,
      "inputs": [],
      "name": "checkTimeLeft",
      "outputs": [
        {
          "name": "",
          "type": "int256"
        }
      ],
      "payable": false,
      "stateMutability": "nonpayable",
      "type": "function",
      "signature": "0xbc0b5757"
    },
    {
      "constant": false,
      "inputs": [
        {
          "name": "_colorSelected",
          "type": "uint256"
        }
      ],
      "name": "makeBet",
      "outputs": [
        {
          "name": "",
          "type": "bytes32"
        }
      ],
      "payable": true,
      "stateMutability": "payable",
      "type": "function",
      "signature": "0x718cc769"
    },
    {
      "constant": false,
      "inputs": [],
      "name": "endBet",
      "outputs": [],
      "payable": false,
      "stateMutability": "nonpayable",
      "type": "function",
      "signature": "0x9ada30ac"
    },
    {
      "constant": true,
      "inputs": [
        {
          "name": "_winningColor",
          "type": "uint256"
        }
      ],
      "name": "getWinners",
      "outputs": [
        {
          "name": "",
          "type": "address[]"
        }
      ],
      "payable": false,
      "stateMutability": "view",
      "type": "function",
      "signature": "0x6b1426a4"
    },
    {
      "constant": false,
      "inputs": [],
      "name": "clearBetIds",
      "outputs": [],
      "payable": false,
      "stateMutability": "nonpayable",
      "type": "function",
      "signature": "0xc7589bd1"
    },
    {
      "constant": false,
      "inputs": [],
      "name": "clearPlayerAddresses",
      "outputs": [],
      "payable": false,
      "stateMutability": "nonpayable",
      "type": "function",
      "signature": "0x21c2df68"
    },
    {
      "constant": true,
      "inputs": [],
      "name": "getBetId",
      "outputs": [
        {
          "name": "",
          "type": "bytes32"
        }
      ],
      "payable": false,
      "stateMutability": "view",
      "type": "function",
      "signature": "0x03c8ab53"
    },
    {
      "constant": true,
      "inputs": [],
      "name": "getBetIdLength",
      "outputs": [
        {
          "name": "",
          "type": "uint256"
        }
      ],
      "payable": false,
      "stateMutability": "view",
      "type": "function",
      "signature": "0x4c12ce3f"
    },
    {
      "constant": true,
      "inputs": [],
      "name": "getStartTime",
      "outputs": [
        {
          "name": "",
          "type": "uint256"
        }
      ],
      "payable": false,
      "stateMutability": "view",
      "type": "function",
      "signature": "0xc828371e"
    },
    {
      "constant": true,
      "inputs": [],
      "name": "getEndTime",
      "outputs": [
        {
          "name": "",
          "type": "uint256"
        }
      ],
      "payable": false,
      "stateMutability": "view",
      "type": "function",
      "signature": "0x439f5ac2"
    },
    {
      "constant": true,
      "inputs": [],
      "name": "getMinimumBet",
      "outputs": [
        {
          "name": "",
          "type": "uint256"
        }
      ],
      "payable": false,
      "stateMutability": "view",
      "type": "function",
      "signature": "0x839930ba"
    },
    {
      "constant": true,
      "inputs": [],
      "name": "getIsRunning",
      "outputs": [
        {
          "name": "",
          "type": "bool"
        }
      ],
      "payable": false,
      "stateMutability": "view",
      "type": "function",
      "signature": "0xa20dd220"
    },
    {
      "constant": true,
      "inputs": [],
      "name": "getPoolAmount",
      "outputs": [
        {
          "name": "",
          "type": "uint256"
        }
      ],
      "payable": false,
      "stateMutability": "view",
      "type": "function",
      "signature": "0x4ab4ba42"
    },
    {
      "constant": true,
      "inputs": [],
      "name": "getWinningColor",
      "outputs": [
        {
          "name": "",
          "type": "uint256"
        }
      ],
      "payable": false,
      "stateMutability": "view",
      "type": "function",
      "signature": "0xcc267dd2"
    },
    {
      "constant": true,
      "inputs": [
        {
          "name": "id",
          "type": "bytes32"
        }
      ],
      "name": "getColorSelected",
      "outputs": [
        {
          "name": "",
          "type": "uint256"
        }
      ],
      "payable": false,
      "stateMutability": "view",
      "type": "function",
      "signature": "0x1df6949b"
    },
    {
      "constant": true,
      "inputs": [
        {
          "name": "id",
          "type": "bytes32"
        }
      ],
      "name": "getAmountBet",
      "outputs": [
        {
          "name": "",
          "type": "uint256"
        }
      ],
      "payable": false,
      "stateMutability": "view",
      "type": "function",
      "signature": "0xe8d3dd9f"
    },
    {
      "constant": true,
      "inputs": [
        {
          "name": "id",
          "type": "bytes32"
        }
      ],
      "name": "getGambler",
      "outputs": [
        {
          "name": "",
          "type": "address"
        }
      ],
      "payable": false,
      "stateMutability": "view",
      "type": "function",
      "signature": "0x64804ac5"
    },
    {
      "constant": true,
      "inputs": [],
      "name": "getPlayerAmount",
      "outputs": [
        {
          "name": "",
          "type": "uint256"
        }
      ],
      "payable": false,
      "stateMutability": "view",
      "type": "function",
      "signature": "0xe7602711"
    }
  ],
  "bytecode": "0x600a60808181526101e06040529060a061014080388339505081516200002d926001925060200190620000ba565b5060408051600a808252610160820190925290602082016101408038833950508151620000629260089250602001906200010a565b503480156200007057600080fd5b506040516020806200119c833981018060405260208110156200009257600080fd5b50516007805460ff1916905560058190556000620000b260018262000170565b5050620001e3565b828054828255906000526020600020908101928215620000f8579160200282015b82811115620000f8578251825591602001919060010190620000db565b50620001069291506200019c565b5090565b82805482825590600052602060002090810192821562000162579160200282015b82811115620001625782518254600160a060020a031916600160a060020a039091161782556020909201916001909101906200012b565b5062000106929150620001bc565b8154818355818111156200019757600083815260209020620001979181019083016200019c565b505050565b620001b991905b80821115620001065760008155600101620001a3565b90565b620001b991905b8082111562000106578054600160a060020a0319168155600101620001c3565b610fa980620001f36000396000f3fe60806040526004361061011c5763ffffffff7c010000000000000000000000000000000000000000000000000000000060003504166303c8ab5381146101215780631df6949b1461014857806321c2df6814610172578063439f5ac2146101895780634ab4ba421461019e5780634c12ce3f146101b357806364804ac5146101c85780636b1426a41461020e578063718cc76914610288578063839930ba146102a55780639ada30ac146102ba578063a20dd220146102cf578063bc0b5757146102f8578063c7589bd11461030d578063c828371e14610322578063c902c3ae14610337578063cc267dd2146103a5578063d18e81b3146103ba578063d20e54a8146103cf578063e7602711146103f9578063e8d3dd9f1461040e575b600080fd5b34801561012d57600080fd5b50610136610438565b60408051918252519081900360200190f35b34801561015457600080fd5b506101366004803603602081101561016b57600080fd5b503561045f565b34801561017e57600080fd5b50610187610482565b005b34801561019557600080fd5b506101366104e0565b3480156101aa57600080fd5b506101366104e6565b3480156101bf57600080fd5b506101366104ec565b3480156101d457600080fd5b506101f2600480360360208110156101eb57600080fd5b50356104f2565b60408051600160a060020a039092168252519081900360200190f35b34801561021a57600080fd5b506102386004803603602081101561023157600080fd5b5035610510565b60408051602080825283518183015283519192839290830191858101910280838360005b8381101561027457818101518382015260200161025c565b505050509050019250505060405180910390f35b6101366004803603602081101561029e57600080fd5b50356106a6565b3480156102b157600080fd5b506101366109c1565b3480156102c657600080fd5b506101876109c7565b3480156102db57600080fd5b506102e4610bf8565b604080519115158252519081900360200190f35b34801561030457600080fd5b50610136610c01565b34801561031957600080fd5b50610187610c50565b34801561032e57600080fd5b50610136610c5d565b34801561034357600080fd5b506103616004803603602081101561035a57600080fd5b5035610c63565b6040518084600581111561037157fe5b60ff16815260200183815260200182600160a060020a0316600160a060020a03168152602001935050505060405180910390f35b3480156103b157600080fd5b50610136610c91565b3480156103c657600080fd5b50610136610dc7565b3480156103db57600080fd5b50610187600480360360208110156103f257600080fd5b5035610dd0565b34801561040557600080fd5b50610136610edb565b34801561041a57600080fd5b506101366004803603602081101561043157600080fd5b5035610f21565b6001805460009190600019810190811061044e57fe5b906000526020600020015490505b90565b60008181526020819052604081205460ff16600581111561047c57fe5b92915050565b60005b600a8110156104dd57600060088281548110151561049f57fe5b6000918252602090912001805473ffffffffffffffffffffffffffffffffffffffff1916600160a060020a0392909216919091179055600101610485565b50565b60045490565b60025490565b60015490565b600090815260208190526040902060020154600160a060020a031690565b60408051600a80825261016082019092526060918291906020820161014080388339019050509050600080805b60015481101561069c5785600581111561055357fe5b600581111561055e57fe5b60008060018481548110151561057057fe5b6000918252602080832090910154835282019290925260400190205460ff16600581111561059a57fe5b14156106945760005b838110156106195784818151811015156105b957fe5b90602001906020020151600160a060020a03166000806001858154811015156105de57fe5b60009182526020808320909101548352820192909252604001902060020154600160a060020a0316141561061157600192505b6001016105a3565b5081151561068f5760008060018381548110151561063357fe5b9060005260206000200154815260200190815260200160002060020160009054906101000a9004600160a060020a0316848481518110151561067157fe5b600160a060020a039092166020928302909101909101526001909201915b600091505b60010161053d565b5091949350505050565b600080806106b2610edb565b60055490915034101561070f576040805160e560020a62461bcd02815260206004820152601b60248201527f646964206e6f74206d656574206d696e696d756d206275792d696e0000000000604482015290519081900360640190fd5b60075460ff16151561076b576040805160e560020a62461bcd02815260206004820181905260248201527f746865206265742069732063757272656e746c79206e6f742072756e6e696e67604482015290519081900360640190fd5b6000610775610dc7565b136107ca576040805160e560020a62461bcd02815260206004820152601060248201527f74696d65206861732072756e206f757400000000000000000000000000000000604482015290519081900360640190fd5b60408051426020808301919091526c01000000000000000000000000330282840152825160348184030181526054909201909252805191012060005b8281101561084757600880543391908390811061081f57fe5b600091825260209091200154600160a060020a0316141561083f57600193505b600101610806565b50600a8210806108545750825b15156108d0576040805160e560020a62461bcd02815260206004820152602960248201527f6f6e6c7920313020706c61796572732063616e20706c617920696e206120676960448201527f76656e20726f756e640000000000000000000000000000000000000000000000606482015290519081900360840190fd5b8460058111156108dc57fe5b6000828152602081905260409020805460ff191660018360058111156108fe57fe5b021790555060008181526020819052604081203460018083018290556002928301805473ffffffffffffffffffffffffffffffffffffffff1916331790558054808201825593527fb10e2d527612073b26eecdfd717e6a320cf44b4afac2b0732d9fcbe2b7fa0cf6909201839055805490910190558215156109b9573360088381548110151561098a57fe5b9060005260206000200160006101000a815481600160a060020a030219169083600160a060020a031602179055505b505050919050565b60055490565b60075460ff161515600114610a4c576040805160e560020a62461bcd02815260206004820152602660248201527f796f752063616e277420656e6420612062657420746861742069736e2774207260448201527f756e6e696e670000000000000000000000000000000000000000000000000000606482015290519081900360840190fd5b6007805460ff19169055610a5e610c91565b60068181551415610adf576040805160e560020a62461bcd02815260206004820152602b60248201527f6572726f7220696e20726563656976696e672074686520636f7272656374207760448201527f696e6e696e67436f6c6f72000000000000000000000000000000000000000000606482015290519081900360840190fd5b6060610aec600654610510565b90506000805b8251811015610b35578251600090849083908110610b0c57fe5b90602001906020020151600160a060020a03161415610b2d57809150610b35565b600101610af2565b508015610be457600081600254811515610b4b57fe5b04905060005b82811015610bdc578351600090859083908110610b6a57fe5b60209081029091010151600160a060020a031614610bd4578381815181101515610b9057fe5b90602001906020020151600160a060020a03166108fc839081150290604051600060405180830381858888f19350505050158015610bd2573d6000803e3d6000fd5b505b600101610b51565b505060006002555b610bec610c50565b610bf4610482565b5050565b60075460ff1690565b600080610c0c610dc7565b90506001811215610c4b576040805142815290517f16be1b0aa0a2eeb10cbc324576de63ce2fafab5ce88d00af42da553e8d399ca89181900360200190a15b905090565b60006104dd600182610f36565b60035490565b60006020819052908152604090208054600182015460029092015460ff9091169190600160a060020a031683565b60006006547f290decd9548b62a8d60345a988386fc84ba6bc95484008f6362f93160ef3e5631415610cc55750600061045c565b6006547fb10e2d527612073b26eecdfd717e6a320cf44b4afac2b0732d9fcbe2b7fa0cf61415610cf75750600161045c565b6006547f405787fa12a823e0f2b7631cc41b3ba8828b3321ca811111fa75cd3aa3bb5ace1415610d295750600261045c565b6006547fc2575a0e9e593c00f959f8c92f12db2869c3395a3b0502d05e2516446f71f85b1415610d5b5750600361045c565b6006547f8a35acfbc15ff81a39ae7d344fd709f28e8600b4aa8c65c6b64bfe7fe36bd19b1415610d8d5750600461045c565b6006547f036b6384b5eca791c62761152d0c79bb0604c104a5fb6f4eb0703f3154bb3db01415610dbf5750600561045c565b50600661045c565b60045442900390565b60075460ff1615610e51576040805160e560020a62461bcd02815260206004820152602860248201527f63616e27742073746172742061206265742074686174277320616c726561647960448201527f2072756e6e696e67000000000000000000000000000000000000000000000000606482015290519081900360840190fd5b4260038190558181016004556007805460ff19166001179055604080516020808201939093526c01000000000000000000000000330281830152434060548083019190915282518083039091018152607490910190915280519101206006906040805192909106602080840191909152815180840382018152928201909152815191012060065550565b6000805b600880546000919083908110610ef157fe5b600091825260209091200154600160a060020a031614610c4b57600101600a811415610f1c57610c4b565b610edf565b60009081526020819052604090206001015490565b815481835581811115610f5a57600083815260209020610f5a918101908301610f5f565b505050565b61045c91905b80821115610f795760008155600101610f65565b509056fea165627a7a72305820a3ca1c4a12fbf59bbbffd03dc4fb60723fa162b6699b53aad6f215b10ea7a6280029",
  "source": "pragma solidity ^0.5.0;\ncontract Betting {\n    enum colorChoices {red, blue, green, yellow, purple, orange} // feel free to change the colors, it has no impact on the code at all.\n    struct Bets {\n        colorChoices colorSelected; \n        uint256 amountBet;\n        address payable gambler;\n    }\n    mapping(bytes32 => Bets) public bets; // holds information associated with betIds\n    bytes32[] betIds = new bytes32[](10); // holds all betIds\n    uint256 poolAmount; // functionally identical to the contract's balance.\n    uint256 startTime; // time that betting rounds starts\n    uint256 endTime; // time it ends\n    uint256 minimumBet; // minimum buyin\n    uint256 winningColor; // holds winning color\n    bool running; // whether or not there is a round currently ongoing\n    address payable[]  players = new address payable[](10); // used to limit the amount of players (gas costs)\n\n    \n    event TimeOut(uint256 current_time); // have a listener that watches this event on javascript-side\n    event Color(uint256 color); // event emitted when color is chosen\n    \n    constructor(uint256 _minimumBet) public {\n        running = false; // shouldn't be started automatically\n        minimumBet = _minimumBet;  // sets minimum bet\n        betIds.length = 0; // zero betIds at start\n    }\n    \n    function startBet(uint256 _endTime) public {\n        // holds the start/end times and allows contract to start accepting transactions\n        require(running == false, \"can't start a bet that's already running\");\n        startTime = block.timestamp;\n        endTime = block.timestamp + _endTime; // the round will end in \"_endTime\" seconds\n        running = true;\n        winningColor = uint(keccak256(abi.encodePacked(uint(keccak256(abi.encodePacked(block.timestamp, msg.sender, blockhash(block.number)))) % 6)));\n    }\n    \n    function currentTime() public view returns (int256){\n        return int(endTime - block.timestamp); // holds time left in a bet\n    }\n    \n    function checkTimeLeft() public returns (int256){ // emits an event if time is out\n        int256 time = currentTime();\n        if(time < 1){\n            emit TimeOut(block.timestamp);\n        }\n        return time;\n    }\n    \n    function makeBet(uint256 _colorSelected ) public payable returns(bytes32) {\n        bool duplicate = false;\n        uint256 amountOfPlayers = getPlayerAmount();\n        require(msg.value >= minimumBet, \"did not meet minimum buy-in\");\n        require(running, \"the bet is currently not running\");\n        require(currentTime() > 0, \"time has run out\");\n        \n        bytes32 betId = keccak256(abi.encodePacked(block.timestamp, msg.sender));\n        for(uint256 i = 0; i < amountOfPlayers; i++){\n            if(players[i] == msg.sender){\n                duplicate = true;\n            }\n        }\n        require(amountOfPlayers < 10 || duplicate, \"only 10 players can play in a given round\");\n        \n        // set betId, change pool amomunt, and add players to their array\n        \n        bets[betId].colorSelected = colorChoices(_colorSelected);\n        bets[betId].amountBet = msg.value;\n        bets[betId].gambler = msg.sender;\n        betIds.push(betId);\n        poolAmount = poolAmount + msg.value;\n        if(!duplicate){\n            players[amountOfPlayers] = msg.sender;\n        }\n    }\n    \n    \n    function endBet() public {\n        require(running==true, \"you can't end a bet that isn't running\");\n        running = false; // stop accepting bets\n        // get winning colorChoices\n        winningColor = getWinningColor();\n        require(winningColor != 6, \"error in receiving the correct winningColor\");\n        address payable[] memory winners = getWinners(uint256(winningColor));\n        uint256 index = 0;\n        // gets how many winners there are\n        for(uint256 i = 0; i < winners.length; i++){\n            if(winners[i] == address(0)){\n                index = i;\n                break;\n            }\n        }\n        if(index != 0){ // only distribute funds, clear pool if there's a winner.\n            uint256 splitWinnings = poolAmount / index; // divide the pool by the amount of winners.\n            for(uint256 i=0; i< index; i++){\n                if(winners[i] != address(0)){ //another precaution to make sure no zero addresses are paid, probably redundant \n                    winners[i].transfer(splitWinnings);\n                }\n            }\n            poolAmount = 0;\n        }\n        clearBetIds(); // clear bets regardless of outcome\n        clearPlayerAddresses(); // clear player addresses and let other people play\n        \n    }\n    function getWinners(uint256 _winningColor) public view returns (address payable[] memory) {\n        address payable[] memory winners = new address payable[](10); // limit of 10 participants\n        // because address payable[] must be memory\n        uint256 index = 0;\n        bool duplicate = false;\n        for(uint256 i=0; i<betIds.length; i++) {\n            if(bets[betIds[i]].colorSelected == colorChoices(_winningColor)){\n                for(uint256 j = 0; j < index; j++){\n                    if(bets[betIds[i]].gambler == winners[j]){\n                        duplicate = true;\n                    }\n                }\n                if(!duplicate){\n                    winners[index] = bets[betIds[i]].gambler;\n                    index = index + 1;\n                    \n                }\n                duplicate = false;\n            }\n       }\n       return winners;\n    }\n    // set everything to 0 when a round is finished\n    function clearBetIds() public {\n        betIds.length = 0;\n    }  \n    function clearPlayerAddresses() public {\n        for(uint256 i = 0; i < 10; i++){\n            players[i] = address(0);\n        }\n    }\n   // basic global variables\n   function getBetId() public view returns (bytes32) {\n       return betIds[betIds.length -1]; // returns latest bet made\n   }\n   function getBetIdLength() public view returns (uint256){\n        return betIds.length;\n   }\n   function getStartTime() public view returns (uint256){\n        return startTime;\n   }\n   function getEndTime() public view returns (uint256){\n        return endTime;\n   }\n   function getMinimumBet() public view returns (uint256){\n        return minimumBet;\n   }\n   function getIsRunning() public view returns (bool){\n        return running;\n   }\n   function getPoolAmount() public view returns (uint256){\n    return poolAmount;\n   }\n   function getWinningColor() public view returns (uint256){\n    if(winningColor == 18569430475105882587588266137607568536673111973893317399460219858819262702947) {\n        return 0;\n    }\n    else if(winningColor == 80084422859880547211683076133703299733277748156566366325829078699459944778998) {\n        return 1;\n    }\n    else if(winningColor ==29102676481673041902632991033461445430619272659676223336789171408008386403022) {\n        return 2; \n    }\n    else if(winningColor == 87903029871075914254377627908054574944891091886930582284385770809450030037083) {\n        return 3;\n    }\n    else if(winningColor == 62514009886607029107290561805838585334079798074568712924583230797734656856475) {\n        return 4;\n    }\n    else if(winningColor == 1546678032441257452667456735582814959992782782816731922691272282333561699760) {\n        return 5;\n    }\n    else{\n        return 6;\n    }\n   }\n   // get specific info from betIds\n   function getColorSelected(bytes32 id) public view returns (uint256){\n        return uint(bets[id].colorSelected);\n   }\n   function getAmountBet(bytes32 id) public view returns (uint256){\n        return bets[id].amountBet;\n   }\n   function getGambler(bytes32 id) public view returns (address payable){\n        return bets[id].gambler;\n   }\n   function getPlayerAmount() public view returns (uint256){ // iterate until 10 or 0 address is found, whichever is first\n        uint256 index = 0;\n        while(players[index] != address(0)){\n            index++;\n            if(index==10){\n                break;\n            }\n        }\n       return index;\n   }\n}",
  "sourcePath": "/Users/edwinaramburo/chromastake/contracts/Betting.sol",
  "compiler": {
    "name": "solc",
    "version": "0.5.0+commit.1d4f565a.Emscripten.clang"
  },
  "schemaVersion": "3.0.8",
  "updatedAt": "2019-04-28T21:19:12.863Z",
  "devdoc": {
    "methods": {}
  },
  "userdoc": {
    "methods": {}
  }
}