{
  "contractName": "Betting",
  "abi": [
    {
      "constant": true,
      "inputs": [
        {
          "name": "",
          "type": "bytes32"
        }
      ],
      "name": "bets",
      "outputs": [
        {
          "name": "colorSelected",
          "type": "uint8"
        },
        {
          "name": "amountBet",
          "type": "uint256"
        },
        {
          "name": "gambler",
          "type": "address"
        }
      ],
      "payable": false,
      "stateMutability": "view",
      "type": "function",
      "signature": "0xc902c3ae"
    },
    {
      "inputs": [
        {
          "name": "_minimumBet",
          "type": "uint256"
        }
      ],
      "payable": false,
      "stateMutability": "nonpayable",
      "type": "constructor",
      "signature": "constructor"
    },
    {
      "anonymous": false,
      "inputs": [
        {
          "indexed": false,
          "name": "current_time",
          "type": "uint256"
        }
      ],
      "name": "TimeOut",
      "type": "event",
      "signature": "0x16be1b0aa0a2eeb10cbc324576de63ce2fafab5ce88d00af42da553e8d399ca8"
    },
    {
      "anonymous": false,
      "inputs": [
        {
          "indexed": false,
          "name": "color",
          "type": "uint256"
        }
      ],
      "name": "Color",
      "type": "event",
      "signature": "0x9183938afccc831f65183817751f11a01ba48572bca6b9949d24900e6d8730fe"
    },
    {
      "constant": false,
      "inputs": [
        {
          "name": "_endTime",
          "type": "uint256"
        }
      ],
      "name": "startBet",
      "outputs": [],
      "payable": false,
      "stateMutability": "nonpayable",
      "type": "function",
      "signature": "0xd20e54a8"
    },
    {
      "constant": true,
      "inputs": [],
      "name": "currentTime",
      "outputs": [
        {
          "name": "",
          "type": "int256"
        }
      ],
      "payable": false,
      "stateMutability": "view",
      "type": "function",
      "signature": "0xd18e81b3"
    },
    {
      "constant": false,
      "inputs": [],
      "name": "checkTimeLeft",
      "outputs": [
        {
          "name": "",
          "type": "int256"
        }
      ],
      "payable": false,
      "stateMutability": "nonpayable",
      "type": "function",
      "signature": "0xbc0b5757"
    },
    {
      "constant": false,
      "inputs": [
        {
          "name": "_colorSelected",
          "type": "uint256"
        }
      ],
      "name": "makeBet",
      "outputs": [
        {
          "name": "",
          "type": "bytes32"
        }
      ],
      "payable": true,
      "stateMutability": "payable",
      "type": "function",
      "signature": "0x718cc769"
    },
    {
      "constant": false,
      "inputs": [],
      "name": "endBet",
      "outputs": [],
      "payable": false,
      "stateMutability": "nonpayable",
      "type": "function",
      "signature": "0x9ada30ac"
    },
    {
      "constant": true,
      "inputs": [
        {
          "name": "_winningColor",
          "type": "uint256"
        }
      ],
      "name": "getWinners",
      "outputs": [
        {
          "name": "",
          "type": "address[]"
        }
      ],
      "payable": false,
      "stateMutability": "view",
      "type": "function",
      "signature": "0x6b1426a4"
    },
    {
      "constant": false,
      "inputs": [
        {
          "name": "funds",
          "type": "uint256"
        },
        {
          "name": "gambler",
          "type": "address"
        }
      ],
      "name": "payWinnings",
      "outputs": [],
      "payable": true,
      "stateMutability": "payable",
      "type": "function",
      "signature": "0x255e13be"
    },
    {
      "constant": false,
      "inputs": [],
      "name": "clearBetIds",
      "outputs": [],
      "payable": false,
      "stateMutability": "nonpayable",
      "type": "function",
      "signature": "0xc7589bd1"
    },
    {
      "constant": true,
      "inputs": [],
      "name": "getBetId",
      "outputs": [
        {
          "name": "",
          "type": "bytes32"
        }
      ],
      "payable": false,
      "stateMutability": "view",
      "type": "function",
      "signature": "0x03c8ab53"
    },
    {
      "constant": true,
      "inputs": [],
      "name": "getBetIdLength",
      "outputs": [
        {
          "name": "",
          "type": "uint256"
        }
      ],
      "payable": false,
      "stateMutability": "view",
      "type": "function",
      "signature": "0x4c12ce3f"
    },
    {
      "constant": true,
      "inputs": [],
      "name": "getStartTime",
      "outputs": [
        {
          "name": "",
          "type": "uint256"
        }
      ],
      "payable": false,
      "stateMutability": "view",
      "type": "function",
      "signature": "0xc828371e"
    },
    {
      "constant": true,
      "inputs": [],
      "name": "getEndTime",
      "outputs": [
        {
          "name": "",
          "type": "uint256"
        }
      ],
      "payable": false,
      "stateMutability": "view",
      "type": "function",
      "signature": "0x439f5ac2"
    },
    {
      "constant": true,
      "inputs": [],
      "name": "getMinimumBet",
      "outputs": [
        {
          "name": "",
          "type": "uint256"
        }
      ],
      "payable": false,
      "stateMutability": "view",
      "type": "function",
      "signature": "0x839930ba"
    },
    {
      "constant": true,
      "inputs": [],
      "name": "getIsRunning",
      "outputs": [
        {
          "name": "",
          "type": "bool"
        }
      ],
      "payable": false,
      "stateMutability": "view",
      "type": "function",
      "signature": "0xa20dd220"
    },
    {
      "constant": true,
      "inputs": [],
      "name": "getPoolAmount",
      "outputs": [
        {
          "name": "",
          "type": "uint256"
        }
      ],
      "payable": false,
      "stateMutability": "view",
      "type": "function",
      "signature": "0x4ab4ba42"
    },
    {
      "constant": true,
      "inputs": [],
      "name": "getWinningColor",
      "outputs": [
        {
          "name": "",
          "type": "uint256"
        }
      ],
      "payable": false,
      "stateMutability": "view",
      "type": "function",
      "signature": "0xcc267dd2"
    },
    {
      "constant": true,
      "inputs": [
        {
          "name": "id",
          "type": "bytes32"
        }
      ],
      "name": "getColorSelected",
      "outputs": [
        {
          "name": "",
          "type": "uint256"
        }
      ],
      "payable": false,
      "stateMutability": "view",
      "type": "function",
      "signature": "0x1df6949b"
    },
    {
      "constant": true,
      "inputs": [
        {
          "name": "id",
          "type": "bytes32"
        }
      ],
      "name": "getAmountBet",
      "outputs": [
        {
          "name": "",
          "type": "uint256"
        }
      ],
      "payable": false,
      "stateMutability": "view",
      "type": "function",
      "signature": "0xe8d3dd9f"
    },
    {
      "constant": true,
      "inputs": [
        {
          "name": "id",
          "type": "bytes32"
        }
      ],
      "name": "getGambler",
      "outputs": [
        {
          "name": "",
          "type": "address"
        }
      ],
      "payable": false,
      "stateMutability": "view",
      "type": "function",
      "signature": "0x64804ac5"
    }
  ],
  "bytecode": "0x600a60808181526101e06040529060a0610140803883395050815161002b92600192506020019061007d565b5034801561003857600080fd5b50604051602080610c8a8339810180604052602081101561005857600080fd5b50516007805460ff19169055600581905560006100766001826100c8565b505061010e565b8280548282559060005260206000209081019282156100b8579160200282015b828111156100b857825182559160200191906001019061009d565b506100c49291506100f1565b5090565b8154818355818111156100ec576000838152602090206100ec9181019083016100f1565b505050565b61010b91905b808211156100c457600081556001016100f7565b90565b610b6d8061011d6000396000f3fe6080604052600436106101115763ffffffff7c010000000000000000000000000000000000000000000000000000000060003504166303c8ab5381146101165780631df6949b1461013d578063255e13be14610167578063439f5ac2146101955780634ab4ba42146101aa5780634c12ce3f146101bf57806364804ac5146101d45780636b1426a41461021a578063718cc76914610294578063839930ba146102b15780639ada30ac146102c6578063a20dd220146102db578063bc0b575714610304578063c7589bd114610319578063c828371e1461032e578063c902c3ae14610343578063cc267dd2146103b1578063d18e81b3146103c6578063d20e54a8146103db578063e8d3dd9f14610405575b600080fd5b34801561012257600080fd5b5061012b61042f565b60408051918252519081900360200190f35b34801561014957600080fd5b5061012b6004803603602081101561016057600080fd5b5035610456565b6101936004803603604081101561017d57600080fd5b5080359060200135600160a060020a0316610479565b005b3480156101a157600080fd5b5061012b6104b4565b3480156101b657600080fd5b5061012b6104ba565b3480156101cb57600080fd5b5061012b6104c0565b3480156101e057600080fd5b506101fe600480360360208110156101f757600080fd5b50356104c6565b60408051600160a060020a039092168252519081900360200190f35b34801561022657600080fd5b506102446004803603602081101561023d57600080fd5b50356104e4565b60408051602080825283518183015283519192839290830191858101910280838360005b83811015610280578181015183820152602001610268565b505050509050019250505060405180910390f35b61012b600480360360208110156102aa57600080fd5b503561067a565b3480156102bd57600080fd5b5061012b610872565b3480156102d257600080fd5b50610193610878565b3480156102e757600080fd5b506102f06109e9565b604080519115158252519081900360200190f35b34801561031057600080fd5b5061012b6109f2565b34801561032557600080fd5b50610193610a41565b34801561033a57600080fd5b5061012b610a51565b34801561034f57600080fd5b5061036d6004803603602081101561036657600080fd5b5035610a57565b6040518084600581111561037d57fe5b60ff16815260200183815260200182600160a060020a0316600160a060020a03168152602001935050505060405180910390f35b3480156103bd57600080fd5b5061012b610a85565b3480156103d257600080fd5b5061012b610a8b565b3480156103e757600080fd5b50610193600480360360208110156103fe57600080fd5b5035610a94565b34801561041157600080fd5b5061012b6004803603602081101561042857600080fd5b5035610aef565b6001805460009190600019810190811061044557fe5b906000526020600020015490505b90565b60008181526020819052604081205460ff16600581111561047357fe5b92915050565b604051600160a060020a0382169083156108fc029084906000818181858888f193505050501580156104af573d6000803e3d6000fd5b505050565b60045490565b60025490565b60015490565b600090815260208190526040902060020154600160a060020a031690565b60408051600a80825261016082019092526060918291906020820161014080388339019050509050600080805b6001548110156106705785600581111561052757fe5b600581111561053257fe5b60008060018481548110151561054457fe5b6000918252602080832090910154835282019290925260400190205460ff16600581111561056e57fe5b14156106685760005b838110156105ed57848181518110151561058d57fe5b90602001906020020151600160a060020a03166000806001858154811015156105b257fe5b60009182526020808320909101548352820192909252604001902060020154600160a060020a031614156105e557600192505b600101610577565b508115156106635760008060018381548110151561060757fe5b9060005260206000200154815260200190815260200160002060020160009054906101000a9004600160a060020a0316848481518110151561064557fe5b600160a060020a039092166020928302909101909101526001909201915b600091505b600101610511565b5091949350505050565b6005546000903410156106d7576040805160e560020a62461bcd02815260206004820152601b60248201527f646964206e6f74206d656574206d696e696d756d206275792d696e0000000000604482015290519081900360640190fd5b60075460ff161515610733576040805160e560020a62461bcd02815260206004820181905260248201527f746865206265742069732063757272656e746c79206e6f742072756e6e696e67604482015290519081900360640190fd5b600061073d610a8b565b13610792576040805160e560020a62461bcd02815260206004820152601060248201527f74696d65206861732072756e206f757400000000000000000000000000000000604482015290519081900360640190fd5b60408051426020808301919091526c0100000000000000000000000033028284015282516034818403018152605490920190925280519101208260058111156107d757fe5b6000828152602081905260409020805460ff191660018360058111156107f957fe5b021790555060008181526020819052604081203460018083018290556002928301805473ffffffffffffffffffffffffffffffffffffffff1916331790558054808201825593527fb10e2d527612073b26eecdfd717e6a320cf44b4afac2b0732d9fcbe2b7fa0cf6909201929092558154019055919050565b60055490565b60075460ff1615156001146108fd576040805160e560020a62461bcd02815260206004820152602660248201527f796f752063616e277420656e6420612062657420746861742069736e2774207260448201527f756e6e696e670000000000000000000000000000000000000000000000000000606482015290519081900360840190fd5b6007805460ff19169055600654606090610916906104e4565b90506000805b825181101561095f57825160009084908390811061093657fe5b90602001906020020151600160a060020a031614156109575780915061095f565b60010161091c565b5080156109dd5760008160025481151561097557fe5b04905060005b828110156109d557835160009085908390811061099457fe5b60209081029091010151600160a060020a0316146109cd576109cd8285838151811015156109be57fe5b90602001906020020151610479565b60010161097b565b505060006002555b6109e5610a41565b5050565b60075460ff1690565b6000806109fd610a8b565b90506001811215610a3c576040805142815290517f16be1b0aa0a2eeb10cbc324576de63ce2fafab5ce88d00af42da553e8d399ca89181900360200190a15b905090565b6000610a4e600182610b04565b50565b60035490565b60006020819052908152604090208054600182015460029092015460ff9091169190600160a060020a031683565b60065490565b60045442900390565b4260038190558181016004556007805460ff19166001179055604080516020808201939093526c0100000000000000000000000033028183015281516034818303018152605490910190915280519101206006900660065550565b60009081526020819052604090206001015490565b8154818355818111156104af576000838152602090206104af91810190830161045391905b80821115610b3d5760008155600101610b29565b509056fea165627a7a72305820c436f19ec5f84a4b09fb29f8119edef31e2e9ddde3348e037fc9d69a506f063c0029",
  "source": "pragma solidity ^0.5.0;\ncontract Betting {\n    enum colorChoices {red, blue, green, yellow, purple, orange} // feel free to change the colors, it has no impact on the code at all.\n    struct Bets {\n        colorChoices colorSelected; \n        uint256 amountBet;\n        address payable gambler;\n    }\n    \n    mapping(bytes32 => Bets) public bets;\n    bytes32[] betIds = new bytes32[](10); // holds all betIds\n    uint256 poolAmount; // functionally identical to the contract's balance.\n    uint256 startTime; // time that betting rounds starts\n    uint256 endTime; // time it ends\n    uint256 minimumBet; // minimum buyin\n    uint256 winningColor;\n    bool running; // whether or not there is a round currently ongoing\n\n    \n    event TimeOut(uint256 current_time); // have a listener that watches this event on javascript-side\n    event Color(uint256 color); // event emitted when color is chosen\n    \n    constructor(uint256 _minimumBet) public {\n        running = false; // shouldn't be started automatically\n        minimumBet = _minimumBet; \n        betIds.length = 0; // zero betIds at start\n    }\n    \n    function startBet(uint256 _endTime) public {\n        // holds the start/end times and allows contract to start accepting transactions\n        startTime = block.timestamp;\n        endTime = block.timestamp + _endTime; // the round will end in \"_endTime\" seconds\n        running = true;\n        winningColor = uint(keccak256(abi.encodePacked(block.timestamp, msg.sender))) % 6;\n    }\n    \n    function currentTime() public view returns (int256){\n        return int(endTime - block.timestamp);\n    }\n    \n    function checkTimeLeft() public returns (int256){\n        // to be called from the javascript-side every second through setInterval\n        // theoretically it SHOULDN'T require ether if called via using .call()\n        // https://web3js.readthedocs.io/en/1.0/web3-eth.html#eth-call\n        // ^ needs testing w/ front-end though\n        int256 time = currentTime();\n        if(time < 1){\n            emit TimeOut(block.timestamp);\n        }\n        return time;\n    }\n    \n    function makeBet(uint256 _colorSelected ) public payable returns(bytes32) {\n        require(msg.value >= minimumBet, \"did not meet minimum buy-in\");\n        require(running, \"the bet is currently not running\");\n        require(currentTime() > 0, \"time has run out\");\n        bytes32 betId = keccak256(abi.encodePacked(block.timestamp, msg.sender));\n        bets[betId].colorSelected = colorChoices(_colorSelected);\n        bets[betId].amountBet = msg.value;\n        bets[betId].gambler = msg.sender;\n        betIds.push(betId);\n        poolAmount = poolAmount + msg.value;\n    }\n    \n    \n    function endBet() public {\n        require(running==true, \"you can't end a bet that isn't running\");\n        running = false; // stop accepting bets\n        // get winning colorChoices\n        address payable[] memory winners = getWinners(uint256(winningColor));\n        uint256 index = 0;\n        // gets how many winners there are\n        for(uint256 i = 0; i < winners.length; i++){\n            if(winners[i] == address(0)){\n                index = i;\n                break;\n            }\n        }\n        if(index != 0){ // only distribute funds, clear pool if there's a winner.\n            uint256 splitWinnings = poolAmount / index; // divide the pool by the amount of winners.\n            for(uint256 i=0; i< index; i++){\n                if(winners[i] != address(0)){ //another precaution to make sure no zero addresses are paid, probably redundant \n                    payWinnings(splitWinnings, winners[i]);\n                }\n            }\n            poolAmount = 0;\n        }\n        clearBetIds(); // clear bets regardless of outcome\n    }\n    function getWinners(uint256 _winningColor) public view returns (address payable[] memory) {\n        address payable[] memory winners = new address payable[](10); // limit of 10 participants due to this limitation\n        uint256 index = 0;\n        bool duplicate = false;\n        for(uint256 i=0; i<betIds.length; i++) {\n            if(bets[betIds[i]].colorSelected == colorChoices(_winningColor)){\n                for(uint256 j = 0; j < index; j++){\n                    if(bets[betIds[i]].gambler == winners[j]){\n                        duplicate = true;\n                    }\n                }\n                if(!duplicate){\n                    winners[index] = bets[betIds[i]].gambler;\n                    index = index + 1;\n                    \n                }\n                duplicate = false;\n            }\n       }\n       return winners;\n    }\n   \n    function payWinnings(uint256 funds, address payable gambler) public payable {\n       gambler.transfer(funds);\n    }\n    \n    function clearBetIds() public {\n        betIds.length = 0;\n    }  \n    \n   // for testing \n   // basic global variables\n   function getBetId() public view returns (bytes32) {\n       return betIds[betIds.length -1]; // returns latest bet made\n       // getting the entire array might not be possible due to web3.js limitations\n       // need more research into this though\n   }\n   function getBetIdLength() public view returns (uint256){\n        return betIds.length;\n   }\n   function getStartTime() public view returns (uint256){\n        return startTime;\n   }\n   function getEndTime() public view returns (uint256){\n        return endTime;\n   }\n   function getMinimumBet() public view returns (uint256){\n        return minimumBet;\n   }\n   function getIsRunning() public view returns (bool){\n        return running;\n   }\n   function getPoolAmount() public view returns (uint256){\n    return poolAmount;\n   }\n   function getWinningColor() public view returns (uint256){\n    return winningColor;\n   }\n   // get specific info from betIds\n   function getColorSelected(bytes32 id) public view returns (uint256){\n        return uint(bets[id].colorSelected);\n   }\n   function getAmountBet(bytes32 id) public view returns (uint256){\n        return bets[id].amountBet;\n   }\n   function getGambler(bytes32 id) public view returns (address payable){\n        return bets[id].gambler;\n   }\n}",
  "sourcePath": "/Users/perrystory/chromastake_js/contracts/Betting.sol",
  "compiler": {
    "name": "solc",
    "version": "0.5.0+commit.1d4f565a.Emscripten.clang"
  },
  "schemaVersion": "3.0.2",
  "updatedAt": "2019-04-19T01:03:00.877Z",
  "devdoc": {
    "methods": {}
  },
  "userdoc": {
    "methods": {}
  }
}