{
  "contractName": "Betting",
  "abi": [
    {
      "constant": true,
      "inputs": [
        {
          "name": "",
          "type": "bytes32"
        }
      ],
      "name": "bets",
      "outputs": [
        {
          "name": "colorSelected",
          "type": "string"
        },
        {
          "name": "amountBet",
          "type": "uint256"
        },
        {
          "name": "gambler",
          "type": "address"
        }
      ],
      "payable": false,
      "stateMutability": "view",
      "type": "function",
      "signature": "0xc902c3ae"
    },
    {
      "inputs": [
        {
          "name": "_minimumBet",
          "type": "uint256"
        }
      ],
      "payable": false,
      "stateMutability": "nonpayable",
      "type": "constructor",
      "signature": "constructor"
    },
    {
      "anonymous": false,
      "inputs": [
        {
          "indexed": false,
          "name": "current_time",
          "type": "uint256"
        }
      ],
      "name": "TimeOut",
      "type": "event",
      "signature": "0x16be1b0aa0a2eeb10cbc324576de63ce2fafab5ce88d00af42da553e8d399ca8"
    },
    {
      "constant": false,
      "inputs": [
        {
          "name": "_color",
          "type": "string"
        }
      ],
      "name": "winningColor",
      "outputs": [],
      "payable": false,
      "stateMutability": "nonpayable",
      "type": "function",
      "signature": "0x4eb579e4"
    },
    {
      "constant": false,
      "inputs": [
        {
          "name": "_endTime",
          "type": "uint256"
        }
      ],
      "name": "startBet",
      "outputs": [],
      "payable": false,
      "stateMutability": "nonpayable",
      "type": "function",
      "signature": "0xd20e54a8"
    },
    {
      "constant": false,
      "inputs": [],
      "name": "checkTimeLeft",
      "outputs": [
        {
          "name": "",
          "type": "int256"
        }
      ],
      "payable": false,
      "stateMutability": "nonpayable",
      "type": "function",
      "signature": "0xbc0b5757"
    },
    {
      "constant": false,
      "inputs": [
        {
          "name": "_winningColor",
          "type": "string"
        }
      ],
      "name": "endBet",
      "outputs": [],
      "payable": false,
      "stateMutability": "nonpayable",
      "type": "function",
      "signature": "0xce59b219"
    },
    {
      "constant": false,
      "inputs": [
        {
          "name": "_stringSelected",
          "type": "string"
        }
      ],
      "name": "makeBet",
      "outputs": [
        {
          "name": "",
          "type": "bytes32"
        }
      ],
      "payable": true,
      "stateMutability": "payable",
      "type": "function",
      "signature": "0x72375078"
    },
    {
      "constant": true,
      "inputs": [],
      "name": "getRunning",
      "outputs": [
        {
          "name": "",
          "type": "bool"
        }
      ],
      "payable": false,
      "stateMutability": "view",
      "type": "function",
      "signature": "0x3924f089"
    }
  ],
  "bytecode": "0x608060405234801561001057600080fd5b5060405160208061083a8339810180604052602081101561003057600080fd5b50516003805460ff191690556002556107ec8061004e6000396000f3fe6080604052600436106100825763ffffffff7c01000000000000000000000000000000000000000000000000000000006000350416633924f08981146100875780634eb579e4146100b05780637237507814610165578063bc0b57571461021d578063c902c3ae14610232578063ce59b2191461030e578063d20e54a8146103c1575b600080fd5b34801561009357600080fd5b5061009c6103eb565b604080519115158252519081900360200190f35b3480156100bc57600080fd5b50610163600480360360208110156100d357600080fd5b8101906020810181356401000000008111156100ee57600080fd5b82018360208201111561010057600080fd5b8035906020019184600183028401116401000000008311171561012257600080fd5b91908080601f0160208091040260200160405190810160405280939291908181526020018383808284376000920191909152509295506103f5945050505050565b005b61020b6004803603602081101561017b57600080fd5b81019060208101813564010000000081111561019657600080fd5b8201836020820111156101a857600080fd5b803590602001918460018302840111640100000000831117156101ca57600080fd5b91908080601f016020809104026020016040519081016040528093929190818152602001838380828437600092019190915250929550610401945050505050565b60408051918252519081900360200190f35b34801561022957600080fd5b5061020b6105ef565b34801561023e57600080fd5b5061025c6004803603602081101561025557600080fd5b503561063c565b60405180806020018481526020018373ffffffffffffffffffffffffffffffffffffffff1673ffffffffffffffffffffffffffffffffffffffff168152602001828103825285818151815260200191508051906020019080838360005b838110156102d15781810151838201526020016102b9565b50505050905090810190601f1680156102fe5780820380516001836020036101000a031916815260200191505b5094505050505060405180910390f35b34801561031a57600080fd5b506101636004803603602081101561033157600080fd5b81019060208101813564010000000081111561034c57600080fd5b82018360208201111561035e57600080fd5b8035906020019184600183028401116401000000008311171561038057600080fd5b91908080601f016020809104026020016040519081016040528093929190818152602001838380828437600092019190915250929550610700945050505050565b3480156103cd57600080fd5b50610163600480360360208110156103e457600080fd5b503561070d565b60035460ff165b90565b6103fe81610700565b50565b60025460009034101561047557604080517f08c379a000000000000000000000000000000000000000000000000000000000815260206004820152601b60248201527f646964206e6f74206d656574206d696e696d756d206275792d696e0000000000604482015290519081900360640190fd5b60035460ff1615156104e857604080517f08c379a000000000000000000000000000000000000000000000000000000000815260206004820181905260248201527f746865206265742069732063757272656e746c79206e6f742072756e6e696e67604482015290519081900360640190fd5b60006104f26105ef565b1361055e57604080517f08c379a000000000000000000000000000000000000000000000000000000000815260206004820152601060248201527f74696d65206861732072756e206f757400000000000000000000000000000000604482015290519081900360640190fd5b60408051426020808301919091526c0100000000000000000000000033028284015282516034818403018152605490920183528151918101919091206000818152600483529290922084516105b592860190610728565b506000908152600460205260409020346001820155600201805473ffffffffffffffffffffffffffffffffffffffff191633179055919050565b6000600142600154031215610632576040805142815290517f16be1b0aa0a2eeb10cbc324576de63ce2fafab5ce88d00af42da553e8d399ca89181900360200190a15b4260015403905090565b60046020908152600091825260409182902080548351601f600260001961010060018616150201909316929092049182018490048402810184019094528084529092918391908301828280156106d35780601f106106a8576101008083540402835291602001916106d3565b820191906000526020600020905b8154815290600101906020018083116106b657829003601f168201915b50505050600183015460029093015491929173ffffffffffffffffffffffffffffffffffffffff16905083565b506003805460ff19169055565b4260008190550160019081556003805460ff19169091179055565b828054600181600116156101000203166002900490600052602060002090601f016020900481019282601f1061076957805160ff1916838001178555610796565b82800160010185558215610796579182015b8281111561079657825182559160200191906001019061077b565b506107a29291506107a6565b5090565b6103f291905b808211156107a257600081556001016107ac56fea165627a7a723058207e6385d09f71a3f2c57b1ff2649f59a575549de07b70c071a960f095ec3a8d7e0029",
  "source": "pragma solidity ^0.5.0;\ncontract Betting {\n    \n    struct Bets {\n        string colorSelected; //TODO: Change to enum\n        uint256 amountBet;\n        address gambler;\n    }\n    \n    \n    event TimeOut(uint256 current_time); // have a listener that watches this event on javascript-side\n    // given current_time so that there are no duplicates in timing out\n    \n    uint256 startTime; // time that betting rounds starts\n    uint256 endTime; // time it ends\n    uint256 minimumBet; // minimum buyin\n    bool running; // whether or not there is a round currently ongoing\n\n    mapping(bytes32 => Bets) public bets;\n    \n    constructor(uint256 _minimumBet) public {\n        running = false; // shouldn't be started automatically\n        minimumBet = _minimumBet; \n    }\n    \n    function winningColor(string memory _color) public { \n        // assumes the color is generated on the javascript-side\n        // https://ethereum.stackexchange.com/questions/191/how-can-i-securely-generate-a-random-number-in-my-smart-contract\n        // smart contracts are deterministic, so true randomness is difficult, but can be done if necessary\n        endBet(_color);\n    }\n\n    function startBet(uint256 _endTime) public {\n        // holds the start/end times and allows contract to start accepting transactions\n        startTime = block.timestamp;\n        endTime = block.timestamp + _endTime;\n        running = true;\n    }\n    \n    function checkTimeLeft() public returns (int256){\n        // to be called from the javascript-side every second through setInterval\n        // theoretically it SHOULDN'T require ether if called via using .call()\n        // https://web3js.readthedocs.io/en/1.0/web3-eth.html#eth-call\n        // ^ needs testing w/ front-end though\n        if( int(endTime -block.timestamp) < 1){\n            emit TimeOut(block.timestamp);\n        }\n        return int(endTime - block.timestamp);\n    }\n    \n    function endBet(string memory _winningColor) public {\n        // zero out all bet transactions\n        running = false;\n        // distribute funds for winning color\n    }\n   \n    function makeBet(string memory _stringSelected ) public payable returns(bytes32) { // returning for testing purposes\n        require(msg.value >= minimumBet, \"did not meet minimum buy-in\");\n        require(running, \"the bet is currently not running\");\n        require(checkTimeLeft() > 0, \"time has run out\");\n        bytes32 betId = bytes32(keccak256(abi.encodePacked(block.timestamp, msg.sender)));\n        bets[betId].colorSelected = _stringSelected;\n        bets[betId].amountBet = msg.value;\n        bets[betId].gambler = msg.sender;\n        \n    }\n\n    function getRunning() public view returns(bool){\n        return running;\n    }\n}",
  "sourcePath": "/Users/perrystory/chromastake_js/contracts/Betting.sol",
  "compiler": {
    "name": "solc",
    "version": "0.5.0+commit.1d4f565a.Emscripten.clang"
  },
  "schemaVersion": "3.0.2",
  "updatedAt": "2019-04-15T14:27:07.974Z",
  "devdoc": {
    "methods": {}
  },
  "userdoc": {
    "methods": {}
  }
}