{
  "contractName": "Betting",
  "abi": [
    {
      "constant": true,
      "inputs": [
        {
          "name": "",
          "type": "bytes32"
        }
      ],
      "name": "bets",
      "outputs": [
        {
          "name": "colorSelected",
          "type": "uint8"
        },
        {
          "name": "amountBet",
          "type": "uint256"
        },
        {
          "name": "gambler",
          "type": "address"
        }
      ],
      "payable": false,
      "stateMutability": "view",
      "type": "function",
      "signature": "0xc902c3ae"
    },
    {
      "inputs": [
        {
          "name": "_minimumBet",
          "type": "uint256"
        }
      ],
      "payable": false,
      "stateMutability": "nonpayable",
      "type": "constructor",
      "signature": "constructor"
    },
    {
      "anonymous": false,
      "inputs": [
        {
          "indexed": false,
          "name": "current_time",
          "type": "uint256"
        }
      ],
      "name": "TimeOut",
      "type": "event",
      "signature": "0x16be1b0aa0a2eeb10cbc324576de63ce2fafab5ce88d00af42da553e8d399ca8"
    },
    {
      "anonymous": false,
      "inputs": [
        {
          "indexed": false,
          "name": "color",
          "type": "uint256"
        }
      ],
      "name": "Color",
      "type": "event",
      "signature": "0x9183938afccc831f65183817751f11a01ba48572bca6b9949d24900e6d8730fe"
    },
    {
      "constant": false,
      "inputs": [
        {
          "name": "_endTime",
          "type": "uint256"
        }
      ],
      "name": "startBet",
      "outputs": [],
      "payable": false,
      "stateMutability": "nonpayable",
      "type": "function",
      "signature": "0xd20e54a8"
    },
    {
      "constant": true,
      "inputs": [],
      "name": "currentTime",
      "outputs": [
        {
          "name": "",
          "type": "int256"
        }
      ],
      "payable": false,
      "stateMutability": "view",
      "type": "function",
      "signature": "0xd18e81b3"
    },
    {
      "constant": false,
      "inputs": [],
      "name": "checkTimeLeft",
      "outputs": [
        {
          "name": "",
          "type": "int256"
        }
      ],
      "payable": false,
      "stateMutability": "nonpayable",
      "type": "function",
      "signature": "0xbc0b5757"
    },
    {
      "constant": false,
      "inputs": [
        {
          "name": "_colorSelected",
          "type": "uint256"
        }
      ],
      "name": "makeBet",
      "outputs": [
        {
          "name": "",
          "type": "bytes32"
        }
      ],
      "payable": true,
      "stateMutability": "payable",
      "type": "function",
      "signature": "0x718cc769"
    },
    {
      "constant": false,
      "inputs": [],
      "name": "endBet",
      "outputs": [],
      "payable": false,
      "stateMutability": "nonpayable",
      "type": "function",
      "signature": "0x9ada30ac"
    },
    {
      "constant": true,
      "inputs": [
        {
          "name": "_winningColor",
          "type": "uint256"
        }
      ],
      "name": "getWinners",
      "outputs": [
        {
          "name": "",
          "type": "address[]"
        }
      ],
      "payable": false,
      "stateMutability": "view",
      "type": "function",
      "signature": "0x6b1426a4"
    },
    {
      "constant": false,
      "inputs": [
        {
          "name": "funds",
          "type": "uint256"
        },
        {
          "name": "gambler",
          "type": "address"
        }
      ],
      "name": "payWinnings",
      "outputs": [],
      "payable": true,
      "stateMutability": "payable",
      "type": "function",
      "signature": "0x255e13be"
    },
    {
      "constant": false,
      "inputs": [],
      "name": "winningColor",
      "outputs": [
        {
          "name": "",
          "type": "uint256"
        }
      ],
      "payable": false,
      "stateMutability": "nonpayable",
      "type": "function",
      "signature": "0x4949787b"
    },
    {
      "constant": true,
      "inputs": [],
      "name": "sumOfIds",
      "outputs": [
        {
          "name": "",
          "type": "uint256"
        }
      ],
      "payable": false,
      "stateMutability": "view",
      "type": "function",
      "signature": "0x8b6d17f8"
    },
    {
      "constant": false,
      "inputs": [],
      "name": "clearBetIds",
      "outputs": [],
      "payable": false,
      "stateMutability": "nonpayable",
      "type": "function",
      "signature": "0xc7589bd1"
    },
    {
      "constant": true,
      "inputs": [],
      "name": "getBetId",
      "outputs": [
        {
          "name": "",
          "type": "bytes32"
        }
      ],
      "payable": false,
      "stateMutability": "view",
      "type": "function",
      "signature": "0x03c8ab53"
    },
    {
      "constant": true,
      "inputs": [],
      "name": "getBetIdLength",
      "outputs": [
        {
          "name": "",
          "type": "uint256"
        }
      ],
      "payable": false,
      "stateMutability": "view",
      "type": "function",
      "signature": "0x4c12ce3f"
    },
    {
      "constant": true,
      "inputs": [],
      "name": "getStartTime",
      "outputs": [
        {
          "name": "",
          "type": "uint256"
        }
      ],
      "payable": false,
      "stateMutability": "view",
      "type": "function",
      "signature": "0xc828371e"
    },
    {
      "constant": true,
      "inputs": [],
      "name": "getEndTime",
      "outputs": [
        {
          "name": "",
          "type": "uint256"
        }
      ],
      "payable": false,
      "stateMutability": "view",
      "type": "function",
      "signature": "0x439f5ac2"
    },
    {
      "constant": true,
      "inputs": [],
      "name": "getMinimumBet",
      "outputs": [
        {
          "name": "",
          "type": "uint256"
        }
      ],
      "payable": false,
      "stateMutability": "view",
      "type": "function",
      "signature": "0x839930ba"
    },
    {
      "constant": true,
      "inputs": [],
      "name": "getIsRunning",
      "outputs": [
        {
          "name": "",
          "type": "bool"
        }
      ],
      "payable": false,
      "stateMutability": "view",
      "type": "function",
      "signature": "0xa20dd220"
    },
    {
      "constant": true,
      "inputs": [],
      "name": "getPoolAmount",
      "outputs": [
        {
          "name": "",
          "type": "uint256"
        }
      ],
      "payable": false,
      "stateMutability": "view",
      "type": "function",
      "signature": "0x4ab4ba42"
    },
    {
      "constant": true,
      "inputs": [
        {
          "name": "id",
          "type": "bytes32"
        }
      ],
      "name": "getColorSelected",
      "outputs": [
        {
          "name": "",
          "type": "uint256"
        }
      ],
      "payable": false,
      "stateMutability": "view",
      "type": "function",
      "signature": "0x1df6949b"
    },
    {
      "constant": true,
      "inputs": [
        {
          "name": "id",
          "type": "bytes32"
        }
      ],
      "name": "getAmountBet",
      "outputs": [
        {
          "name": "",
          "type": "uint256"
        }
      ],
      "payable": false,
      "stateMutability": "view",
      "type": "function",
      "signature": "0xe8d3dd9f"
    },
    {
      "constant": true,
      "inputs": [
        {
          "name": "id",
          "type": "bytes32"
        }
      ],
      "name": "getGambler",
      "outputs": [
        {
          "name": "",
          "type": "address"
        }
      ],
      "payable": false,
      "stateMutability": "view",
      "type": "function",
      "signature": "0x64804ac5"
    }
  ],
  "bytecode": "0x600a60808181526101e06040529060a0610140803883395050815161002b92600192506020019061007d565b5034801561003857600080fd5b50604051602080610d248339810180604052602081101561005857600080fd5b50516006805460ff19169055600581905560006100766001826100c8565b505061010e565b8280548282559060005260206000209081019282156100b8579160200282015b828111156100b857825182559160200191906001019061009d565b506100c49291506100f1565b5090565b8154818355818111156100ec576000838152602090206100ec9181019083016100f1565b505050565b61010b91905b808211156100c457600081556001016100f7565b90565b610c078061011d6000396000f3fe60806040526004361061011c5763ffffffff7c010000000000000000000000000000000000000000000000000000000060003504166303c8ab5381146101215780631df6949b14610148578063255e13be14610172578063439f5ac2146101a05780634949787b146101b55780634ab4ba42146101ca5780634c12ce3f146101df57806364804ac5146101f45780636b1426a41461023a578063718cc769146102b4578063839930ba146102d15780638b6d17f8146102e65780639ada30ac146102fb578063a20dd22014610310578063bc0b575714610339578063c7589bd11461034e578063c828371e14610363578063c902c3ae14610378578063d18e81b3146103e6578063d20e54a8146103fb578063e8d3dd9f14610425575b600080fd5b34801561012d57600080fd5b5061013661044f565b60408051918252519081900360200190f35b34801561015457600080fd5b506101366004803603602081101561016b57600080fd5b5035610476565b61019e6004803603604081101561018857600080fd5b5080359060200135600160a060020a0316610499565b005b3480156101ac57600080fd5b506101366104d4565b3480156101c157600080fd5b506101366104da565b3480156101d657600080fd5b50610136610546565b3480156101eb57600080fd5b5061013661054c565b34801561020057600080fd5b5061021e6004803603602081101561021757600080fd5b5035610552565b60408051600160a060020a039092168252519081900360200190f35b34801561024657600080fd5b506102646004803603602081101561025d57600080fd5b5035610570565b60408051602080825283518183015283519192839290830191858101910280838360005b838110156102a0578181015183820152602001610288565b505050509050019250505060405180910390f35b610136600480360360208110156102ca57600080fd5b5035610706565b3480156102dd57600080fd5b506101366108fe565b3480156102f257600080fd5b50610136610904565b34801561030757600080fd5b5061019e610940565b34801561031c57600080fd5b50610325610acb565b604080519115158252519081900360200190f35b34801561034557600080fd5b50610136610ad4565b34801561035a57600080fd5b5061019e610b23565b34801561036f57600080fd5b50610136610b33565b34801561038457600080fd5b506103a26004803603602081101561039b57600080fd5b5035610b39565b604051808460058111156103b257fe5b60ff16815260200183815260200182600160a060020a0316600160a060020a03168152602001935050505060405180910390f35b3480156103f257600080fd5b50610136610b67565b34801561040757600080fd5b5061019e6004803603602081101561041e57600080fd5b5035610b70565b34801561043157600080fd5b506101366004803603602081101561044857600080fd5b5035610b89565b6001805460009190600019810190811061046557fe5b906000526020600020015490505b90565b60008181526020819052604081205460ff16600581111561049357fe5b92915050565b604051600160a060020a0382169083156108fc029084906000818181858888f193505050501580156104cf573d6000803e3d6000fd5b505050565b60045490565b6000806104e5610904565b604080516020808201849052825180830382018152828401808552815191909201206006900690819052915192935090917f9183938afccc831f65183817751f11a01ba48572bca6b9949d24900e6d8730fe9181900360600190a191505090565b60025490565b60015490565b600090815260208190526040902060020154600160a060020a031690565b60408051600a80825261016082019092526060918291906020820161014080388339019050509050600080805b6001548110156106fc578560058111156105b357fe5b60058111156105be57fe5b6000806001848154811015156105d057fe5b6000918252602080832090910154835282019290925260400190205460ff1660058111156105fa57fe5b14156106f45760005b8381101561067957848181518110151561061957fe5b90602001906020020151600160a060020a031660008060018581548110151561063e57fe5b60009182526020808320909101548352820192909252604001902060020154600160a060020a0316141561067157600192505b600101610603565b508115156106ef5760008060018381548110151561069357fe5b9060005260206000200154815260200190815260200160002060020160009054906101000a9004600160a060020a031684848151811015156106d157fe5b600160a060020a039092166020928302909101909101526001909201915b600091505b60010161059d565b5091949350505050565b600554600090341015610763576040805160e560020a62461bcd02815260206004820152601b60248201527f646964206e6f74206d656574206d696e696d756d206275792d696e0000000000604482015290519081900360640190fd5b60065460ff1615156107bf576040805160e560020a62461bcd02815260206004820181905260248201527f746865206265742069732063757272656e746c79206e6f742072756e6e696e67604482015290519081900360640190fd5b60006107c9610b67565b1361081e576040805160e560020a62461bcd02815260206004820152601060248201527f74696d65206861732072756e206f757400000000000000000000000000000000604482015290519081900360640190fd5b60408051426020808301919091526c01000000000000000000000000330282840152825160348184030181526054909201909252805191012082600581111561086357fe5b6000828152602081905260409020805460ff1916600183600581111561088557fe5b021790555060008181526020819052604081203460018083018290556002928301805473ffffffffffffffffffffffffffffffffffffffff1916331790558054808201825593527fb10e2d527612073b26eecdfd717e6a320cf44b4afac2b0732d9fcbe2b7fa0cf6909201929092558154019055919050565b60055490565b600080805b60015481101561093a57600180548290811061092157fe5b6000918252602090912001549190910190600101610909565b50905090565b60065460ff1615156001146109c5576040805160e560020a62461bcd02815260206004820152602660248201527f796f752063616e277420656e6420612062657420746861742069736e2774207260448201527f756e6e696e670000000000000000000000000000000000000000000000000000606482015290519081900360840190fd5b6006805460ff1916905560006109d96104da565b60058111156109e457fe5b905060606109fc8260058111156109f757fe5b610570565b90506000805b8251811015610a45578251600090849083908110610a1c57fe5b90602001906020020151600160a060020a03161415610a3d57809150610a45565b600101610a02565b508015610ac357600081600254811515610a5b57fe5b04905060005b82811015610abb578351600090859083908110610a7a57fe5b60209081029091010151600160a060020a031614610ab357610ab3828583815181101515610aa457fe5b90602001906020020151610499565b600101610a61565b505060006002555b6104cf610b23565b60065460ff1690565b600080610adf610b67565b90506001811215610b1e576040805142815290517f16be1b0aa0a2eeb10cbc324576de63ce2fafab5ce88d00af42da553e8d399ca89181900360200190a15b905090565b6000610b30600182610b9e565b50565b60035490565b60006020819052908152604090208054600182015460029092015460ff9091169190600160a060020a031683565b60045442900390565b426003819055016004556006805460ff19166001179055565b60009081526020819052604090206001015490565b8154818355818111156104cf576000838152602090206104cf91810190830161047391905b80821115610bd75760008155600101610bc3565b509056fea165627a7a72305820e8d01e4b5d1b3064e58b0217fdda220966868b7fb35132ebff8b442ff671136c0029",
  "source": "pragma solidity ^0.5.0;\ncontract Betting {\n    enum colorChoices {red, blue, green, yellow, purple, orange} // feel free to change the colors, it has no impact on the code at all.\n    struct Bets {\n        colorChoices colorSelected; \n        uint256 amountBet;\n        address payable gambler;\n    }\n    \n    mapping(bytes32 => Bets) public bets;\n    bytes32[] betIds = new bytes32[](10); // holds all betIds\n    uint256 poolAmount; // functionally identical to the contract's balance.\n    uint256 startTime; // time that betting rounds starts\n    uint256 endTime; // time it ends\n    uint256 minimumBet; // minimum buyin\n    bool running; // whether or not there is a round currently ongoing\n\n    \n    event TimeOut(uint256 current_time); // have a listener that watches this event on javascript-side\n    event Color(uint256 color); // event emitted when color is chosen\n    \n    constructor(uint256 _minimumBet) public {\n        running = false; // shouldn't be started automatically\n        minimumBet = _minimumBet; \n        betIds.length = 0; // zero betIds at start\n    }\n    \n    function startBet(uint256 _endTime) public {\n        // holds the start/end times and allows contract to start accepting transactions\n        startTime = block.timestamp;\n        endTime = block.timestamp + _endTime; // the round will end in \"_endTime\" seconds\n        running = true;\n    }\n    \n    function currentTime() public view returns (int256){\n        return int(endTime - block.timestamp);\n    }\n    \n    function checkTimeLeft() public returns (int256){\n        // to be called from the javascript-side every second through setInterval\n        // theoretically it SHOULDN'T require ether if called via using .call()\n        // https://web3js.readthedocs.io/en/1.0/web3-eth.html#eth-call\n        // ^ needs testing w/ front-end though\n        int256 time = currentTime();\n        if(time < 1){\n            emit TimeOut(block.timestamp);\n        }\n        return time;\n    }\n    \n    function makeBet(uint256 _colorSelected ) public payable returns(bytes32) {\n        require(msg.value >= minimumBet, \"did not meet minimum buy-in\");\n        require(running, \"the bet is currently not running\");\n        require(currentTime() > 0, \"time has run out\");\n        bytes32 betId = keccak256(abi.encodePacked(block.timestamp, msg.sender));\n        bets[betId].colorSelected = colorChoices(_colorSelected);\n        bets[betId].amountBet = msg.value;\n        bets[betId].gambler = msg.sender;\n        betIds.push(betId);\n        poolAmount = poolAmount + msg.value;\n    }\n    \n    \n    function endBet() public {\n        require(running==true, \"you can't end a bet that isn't running\");\n        running = false; // stop accepting bets\n        // get winning colorChoices\n        colorChoices winningColor = colorChoices(winningColor());\n        address payable[] memory winners = getWinners(uint256(winningColor));\n        uint256 index = 0;\n        // gets how many winners there are\n        for(uint256 i = 0; i < winners.length; i++){\n            if(winners[i] == address(0)){\n                index = i;\n                break;\n            }\n        }\n        if(index != 0){ // only distribute funds, clear pool if there's a winner.\n            uint256 splitWinnings = poolAmount / index; // divide the pool by the amount of winners.\n            for(uint256 i=0; i< index; i++){\n                if(winners[i] != address(0)){ //another precaution to make sure no zero addresses are paid, probably redundant \n                    payWinnings(splitWinnings, winners[i]);\n                }\n            }\n            poolAmount = 0;\n        }\n        clearBetIds(); // clear bets regardless of outcome\n    }\n    function getWinners(uint256 _winningColor) public view returns (address payable[] memory) {\n        address payable[] memory winners = new address payable[](10); // limit of 10 participants due to this limitation\n        uint256 index = 0;\n        bool duplicate = false;\n        for(uint256 i=0; i<betIds.length; i++) {\n            if(bets[betIds[i]].colorSelected == colorChoices(_winningColor)){\n                for(uint256 j = 0; j < index; j++){\n                    if(bets[betIds[i]].gambler == winners[j]){\n                        duplicate = true;\n                    }\n                }\n                if(!duplicate){\n                    winners[index] = bets[betIds[i]].gambler;\n                    index = index + 1;\n                    \n                }\n                duplicate = false;\n            }\n       }\n       return winners;\n    }\n   \n    function payWinnings(uint256 funds, address payable gambler) public payable {\n       gambler.transfer(funds);\n    }\n    function winningColor() public returns (uint256) { \n        uint256 sum = sumOfIds();\n        uint256 color = uint(keccak256(abi.encodePacked(sum)))%6;\n        emit Color(color);\n        return color;\n    }\n    \n    function sumOfIds() public view returns (uint256){\n        uint256 sum = 0;\n        for (uint i=0; i<betIds.length; i++) {\n            sum = sum + uint(betIds[i]);\n        }\n        return sum;\n    }\n    \n    function clearBetIds() public {\n        betIds.length = 0;\n    }  \n    \n   // for testing \n   // basic global variables\n   function getBetId() public view returns (bytes32) {\n       return betIds[betIds.length -1]; // returns latest bet made\n       // getting the entire array might not be possible due to web3.js limitations\n       // need more research into this though\n   }\n   function getBetIdLength() public view returns (uint256){\n        return betIds.length;\n   }\n   function getStartTime() public view returns (uint256){\n        return startTime;\n   }\n   function getEndTime() public view returns (uint256){\n        return endTime;\n   }\n   function getMinimumBet() public view returns (uint256){\n        return minimumBet;\n   }\n   function getIsRunning() public view returns (bool){\n        return running;\n   }\n   function getPoolAmount() public view returns (uint256){\n    return poolAmount;\n   }\n   // get specific info from betIds\n   function getColorSelected(bytes32 id) public view returns (uint256){\n        return uint(bets[id].colorSelected);\n   }\n   function getAmountBet(bytes32 id) public view returns (uint256){\n        return bets[id].amountBet;\n   }\n   function getGambler(bytes32 id) public view returns (address payable){\n        return bets[id].gambler;\n   }\n}",
  "sourcePath": "/Users/perrystory/chromastake_js/contracts/Betting.sol",
  "compiler": {
    "name": "solc",
    "version": "0.5.0+commit.1d4f565a.Emscripten.clang"
  },
  "schemaVersion": "3.0.2",
  "updatedAt": "2019-04-17T15:21:03.837Z",
  "devdoc": {
    "methods": {}
  },
  "userdoc": {
    "methods": {}
  }
}